S02800004932435F515549434B5F53544152545F534C4156455F494E54455252555054312E737265633E
S1130000C8210020E51E0000E11E0000E11E0000E2
S113001000000000000000000000000000000000DC
S1130020000000000000000000000000E11E0000CD
S11300300000000000000000E11E0000E11E0000BE
S1130040E11E0000E11E0000E11E0000E11E0000B0
S1130050E11E0000E11E0000E11E0000E11E0000A0
S1130060E11E000099120000A9120000B91200005C
S1130070C9120000D9120000E9120000E11E0000BC
S1130080E11E0000E11E0000E11E0000E11E000070
S1130090E11E00000000000000000000E11E00005E
S11300A0E11E0000E11E0000E11E0000E11E000050
S11300B00000000010B5064C2378002B07D1054B37
S11300C0002B02D0044800E000BF0123237010BDC0
S11300D07400002000000000944C0000084B10B590
S11300E0002B03D00749084800E000BF0748036815
S11300F0002B00D110BD064B002BFBD09847F9E72D
S11301000000000078000020944C0000944C000093
S1130110000000000C4B1B68002B06D1EFF310838A
S1130120002B07D00022094B1A70074A13680133C9
S11301301360704772B6BFF35F8F0022044B1A70CE
S11301400132024B1A70F0E7900000209400002066
S113015000000020084B1A68013A1A601B68002B43
S113016009D1064B1B78002B05D00122044B1A70D1
S1130170BFF35F8F62B670479000002094000020A8
S113018000000020F0B583B001AC012565700027A4
S1130190A770257021003620064EB0478022D20376
S11301A0054B5A612770657021000F20B04703B0DA
S11301B0F0BDC046BD0100008044004100B583B0DD
S11301C001AB80221A700A785A704A789A708A7839
S11301D0DA701900014B984703B000BD811E00007E
S11301E001680722CB691A42FCD17047F0B5D646A4
S11301F04F464646C0B58AB006000F001400316071
S11302000800A04B9847A04A116A851C0123AB4003
S11302100B43136209A9237B0B701430C5B2280069
S11302209A4B984728009A4B9847207B0021994B7A
S113023098473B681C209B0705D50AB01CBC904618
S11302409946A246F0BD3B681738DB07F5D4306801
S11302508C4B9946984705008F49904B9847AD00C1
S11302608F4BEE5000233376737600257383B3836C
S11302702522B554336214333B6033689846180022
S1130280C8478146802308AA1370557001239370D0
S1130290D570E069276A002800D1AFE008AB187078
S11302A0022308AA5370000CC0B211007D4B98477A
S11302B0002F00D1A7E008AB1F70022308AA5370D7
S11302C03F0CF8B21100774B9847A38AF380E38A76
S11302D03381237E8022002B04D1734B9B789B07B0
S11302E0DB0FDA01A16823690B4313432422A25CC8
S11302F0002A02D08022D2051343A26A13432C227F
S1130300A25C002A03D180229204914202D180226D
S1130310120513432D22A25C002A02D0802212046B
S113032013432E22A25C002A02D08022D20313435C
S11303304246126813434246136080235B005360B5
S113034048461430C0B2594B98470790FA239B0093
S113035022685A43914663689A46554DA8470090CF
S113036001914B465800A84702900391208EA8475C
S1130370049005914F4F504A504B00980199B8474B
S113038002000B0004980599B8474D4E00224D4BCE
S1130390B047049005914846A84702000B00049812
S11303A00599B84702000B00474D00980199A847EA
S11303B0029A039BB0470022444BA847029A039B2E
S11303C0434DA847434B9847050080239B04A268EC
S11303D09A421ED003004020FF2D00D92DE70024AF
S11303E00020FF251D40240625430004FF231B0491
S11303F0184005434346DD6000201EE700214046C7
S1130400354B98474AE701214046334B984707004C
S113041051E7FA26B60053465E430098019902005C
S11304200B00274CA047009001913000204B9847C7
S113043000222A4BB84702000B0000980199244C73
S1130440A0470022214B204CA047224B9847041E72
S11304500CD031000798224B98470238001B2B0020
S1130460FF2D0CD8FF28BCD94020E6E67100481EB9
S1130470079B9C4660441A4B98470138EFE740209D
S1130480DBE6C046F111000000040040891D0000B5
S1130490FD1C00002D1000004D0800002D1200006E
S11304A0F4000020811E000000200041A51D000072
S11304B0C93F00003534000095D626E80B2E113EC6
S11304C0AD27000000002440353900000000F03F53
S11304D0CD2D0000613F00007910000000000840AD
S11304E04126000003681A7E920707D502221A7675
S11304F05B8B9B074120DB17184070475A8B5207D0
S113050006D55968C02292020A435A601820F4E7BB
S11305100020F2E730B50268002301240225117E91
S113052021420BD1117E294206D101339BB20189AC
S11305309942F4D8122002E0002000E0002030BDEF
S113054010B5046862688023DB0213436360616250
S1130550024B98470123237610BDC04615050000C1
S1130560F0B5DE4657464E464546E0B583B0060034
S11305700F0005684C88324B98477B7A002B1DD1BD
S11305806B68304A13406B603B7A002B1BD03B886E
S11305905B007A7A920313438022120213436B6244
S11305A03000294B98470190002813D0019803B0DC
S11305B03CBC90469946A246AB46F0BDB97A3000A1
S11305C0224B9847DCE73B885B007A7A920313431B
S11305D06B62E5E730001E4B9847031E0190E5D19E
S11305E0A046002420339946154B9B46164B9A4649
S11305F0444515D06B8B4A4613421DD03000D84772
S11306007B681A5D2823EA543000D047002806D1BD
S11306106B8B01345B07EBD51E23019300E0019043
S1130620B37A002BC2D03000054B98476A68C023C8
S11306309B0213436B60B9E741230193B6E7C046BD
S1130640E1010000FFFFFBFF15050000410500006C
S1130650E504000010B5838B9BB20522002B01D06A
S1130660100010BD01338372C372024B984702001D
S1130670F6E7C0466105000001680722CB691A420B
S1130680FCD1704770B5040006683268458B838BD3
S1130690ED1AADB2838B013B9BB2838313011DD54D
S11306A0C37A002B03D0838B9BB2012B10D0A38B76
S11306B09BB2002B02D1A37A002B1CD12000124B39
S11306C09847236A5D192823F35CDBB22B7070BD55
S11306D072688023DB0213437360E8E7C37A002B5C
S11306E0E5D0838B9BB2002BE1D172688023DB02BF
S11306F013437360DBE72000034B98477268C02301
S11307009B0213437360D9E77906000070B50400B7
S113071005686B8B5B0703D51E222523C25470BD6D
S1130720468B838BF61AB6B2838B013B9BB28383D1
S1130730044B9847236A9E193378DBB22822AB54C2
S1130740EDE7C04679060000F8B505000C00066820
S11307504B6803624B88838301222423C2540432EE
S11307600133C25437683F01FF0F4B7A002B17D176
S1130770002F02D06388012B16D07368204A1340DF
S11307807360237A002B15D10323B37523885B0090
S1130790627A920313430122134373620020F8BD6B
S11307A0897A184B9847E3E772688023DB02134386
S11307B07360E6E723885B00627A92031343802226
S11307C012021343736228000F4B984773680C4A54
S11307D0134073600028E2D128000C4B984700288E
S11307E0DDD10323B37523881B0A782213435B00EE
S11307F0627A920301210A4313437362CFE7C0462E
S1130800FFFFFBFF4105000015050000E5040000A3
S1130810931C9B00C3185960037E012191400B4334
S1130820DBB203767047000010B5838B9BB20522C0
S1130830002B01D0100010BD01338372C372024B30
S113084098470200F6E7C0464907000070B58000EB
S1130850754BC45825682B681B01DA0F637E267E0E
S11308601E40638B9BB2002B03D1A38B9BB2002B46
S113087023D1638B9BB2002B08D0A38B9BB2002B9C
S113088004D12533E35C052B00D16DE0638B9BB26F
S1130890002B24D0A38B9BB2002B20D06B8B9B0608
S11308A000D581E0002A04D0A38B9BB2012B00D198
S11308B07AE041222523E25411E02B7EDB0707D5A1
S11308C001232B766B8B9B072ED541222523E254E3
S11308D0A38B9BB263832523E35C052B38D0638B06
S11308E09BB2002B07D0A38B9BB2002B03D12533E3
S11308F0E35C052B64D02523E35C052B13D025236F
S1130900E35C002B0FD003232B7500236383A383A5
S11309102533E35C412B03D0A37A002B00D075E090
S1130920730700D57BE070BD6B8B5B07D0D51822B5
S11309302523E2540023A383A37A002BC8D02000EC
S11309403A4B98476A68C0239B0213436B60BFE726
S11309501F33E35C002B03D02000354B9847BEE7E0
S11309602000344B9847BAE71F33E35C002B00D0D8
S11309708CE703332B750023638325330022E25471
S1130980A37A002B07D101232B76F307A7D5E368BD
S113099020009847A3E72000244B98476A68C023A7
S11309A09B0213436B60F0E72423E35C002B03D129
S11309B02000204B984792E720001D4B98478EE774
S11309C01F33E35C012B96D12B7E9B0701D50223B9
S11309D02B7603232B750023638325330022E254F3
S11309E0B30703D52423E35C012B0BD0F30700D416
S11309F081E72423E35C002B00D07CE7E36820003C
S1130A00984778E723692000984774E72000074B4C
S1130A1098476A68E023DB0213436B6080E76369ED
S1130A20200098477FE7C046F400002079060000C4
S1130A30850600000D070000F0B5CE46474680B598
S1130A4083B005000C00160029600B681C209B076E
S1130A5004D503B00CBC90469946F0BD0B6817381A
S1130A60DB07F6D408004D4B994698474C4A116A67
S1130A70831C0127B8469F403B000B43136201A926
S1130A80737E0B701430C3B21F001800454B984797
S1130A903800454B9847707E0021444B984728689E
S1130AA0C84707004249434B9847BF00424BFD509B
S1130AB000232422AB540132AB54EB84337E6B729B
S1130AC0102323602C683389EB80337C2B728023C2
S1130AD06A461370002353706B4642469A70002393
S1130AE06A46D370F069356A00284BD06B4618709B
S1130AF002236A465370000CC0B269462F4B9847D4
S1130B00002D44D06B461D7002236A4653702D0C91
S1130B10E8B26946294B9847B37E8022002B04D162
S1130B20274B9B789B07DB0FDA012523F35C002B13
S1130B3004D180239B047169994202D180231B054F
S1130B401A432068736871690B432421715C890717
S1130B500B432621715CC9050B43034313432360F4
S1130B60728980235B0013436360B3895B00F2895D
S1130B7052041343727C1343327CD20313436362E3
S1130B80002066E7002120000E4B9847AEE70121C4
S1130B9020000C4B98470500B4E7C046F111000053
S1130BA000040040891D0000FD1C00002D10000001
S1130BB0350C00002D120000F4000020811E0000FE
S1130BC0002000417910000010B5931C9B00C3184D
S1130BD059602424035D012191400B43DBB203558A
S1130BE010BD028D0523002A01D0180070474B6800
S1130BF0C3620B8803850B88C38405323123C25436
S1130C00036802329A750023EFE7028D0523002A58
S1130C1001D0180070474B68C3620B8803850B88AA
S1130C20C38405323123C254036802329A75002307
S1130C30EFE7000070B580009B4BC458256825235E
S1130C40E35C2422A65C1E402B7E9B0700D495E027
S1130C50E38C9BB2228D93420DD03023E35C002BB6
S1130C6009D13122A354E3842385B3070BD5236927
S1130C702000984707E0E38C9BB29A4203D03023CC
S1130C80E35C012B22D06A8B43231A4204D0102246
S1130C90123BE254B30624D4637A002B25D16B8B28
S1130CA01B074AD501223023E254730738D4E38C5E
S1130CB09BB2002B38D125687C4B984700236B836B
S1130CC08023DB026B607A4B984718E000233122C3
S1130CD0A354E3842385F307D5D5E368200098471C
S1130CE0D1E7236A20009847D6E725686F4B9847D9
S1130CF000236B838023DB026B606D4B9847236872
S1130D001A7ED20701D501221A7602221A762468A5
S1130D10664B9847002363836360654B984770BDB7
S1130D20636920009847C2E72568604B9847002311
S1130D306B836B605E4B9847E1E700223023E254FB
S1130D4033070ED4E38C9BB2002B0ED12568574B8E
S1130D50984700236B838023DB026B60544B9847D6
S1130D60CDE7A36920009847ECE725684F4B9847E7
S1130D7000236B836B604E4B9847C0E72B7EDB07E9
S1130D802ED501232B7604332B752033E35C5B07CC
S1130D9005D42523E35C1B0701D402232B753123DF
S1130DA0E35C1E2BBBD03123E35C102BB7D00023B4
S1130DB03122A354E3842385B30703D53023E35CB2
S1130DC0002B09D0F307AAD53023E35C012BA6D16D
S1130DD0E36820009847A2E72369200098479EE72C
S1130DE02B7E5B079BD5238D002B1ED03022A25C6B
S1130DF0012A13D0E38C9BB2002B00D18FE7302360
S1130E00E35C002B44D0E36A5A1CE2621B78DBB239
S1130E102822AB54238D013B238580E7E28C92B2D8
S1130E209342E7D26B8B5B07E4D500232385E384ED
S1130E303033E35C002B17D11C4B984700236B83A2
S1130E408023DB026B601A4B98476A6880239B02FD
S1130E5013436B601E223123E254F30600D45EE791
S1130E60E369200098475AE7104B984700236B83A7
S1130E708023DB026B600E4B98476A6880239B02D9
S1130E8013436B6031230022E2542D3B2B7546E75C
S1130E90E26A531CE3622823EB5CDBB21370238DFC
S1130EA0013B23853BE7C046F40000201501000008
S1130EB055010000F0B5DE4657464E464546E0B5BE
S1130EC087B08046049116001F00002200230021F1
S1130ED08B463F2401202100009601975C46039431
S1130EE04446059413E02024641A0500E540A8460E
S1130EF014E0009C019D121BAB415C464D462C4303
S1130F00A346039C45462C430394013925D320244E
S1130F1064420C19E7D40500A540A84604008C409F
S1130F20A14692185B4114001D00059E4F463E40A9
S1130F30B446049E47463E40B246664657463E4344
S1130F4003D00600264332002B00009C019D9D42E5
S1130F50DBD8CED19442D8D8CBE7039B58461900AE
S1130F6007B03CBC90469946A246AB46F0BD10B5CE
S1130F70490840230024814202D2180010BD1C00FD
S1130F80091A631C9BB28842F9D94023FF2CF4D878
S1130F9014800023F1E70000F0B583B00F001600C1
S1130FA008AA117804004C434022BC4202D9100024
S1130FB003B0F0BD002B14D1020008000021194C2D
S1130FC0A04701003A0000230020174CA04700224C
S1130FD00123121A8B41120C1B041A433280002283
S1130FE0E5E70022012BF9D10A00002300210D4C72
S1130FF0A04702000B0000920193380000210A4C24
S1131000A047050080239B0140229842CFD8790F46
S1131010F800009A019BA047EA00821AD2B2520358
S11310202A43DBE759270000B50E000010B582B053
S113103004000E4B1B78002B07D0002905D10B4B65
S11310405B78834210D01D200CE001A90C701320A2
S1131050074B98471320074B9847044B5C700122B9
S11310601A70002002B010BD0020FBE79800002099
S1131070891D0000FD1C0000404B984231D00AD964
S11310803F4B98424DD03F4B98425AD03E4B9842EA
S113109037D0002070473D4B98420CD03C4B9842CF
S11310A0F7D1012917D000295DD0022915D00329D1
S11310B015D00020EEE7012907D0002951D00229DC
S11310C005D0032905D00020E4E73248E2E732489E
S11310D0E0E73248DEE73248DCE73248DAE7324814
S11310E0D8E7012907D000293FD0022905D00329D8
S11310F005D00020CEE72D48CCE72D48CAE72D487F
S1131100C8E7012907D0002931D0022905D00329D5
S113111005D00020BEE72848BCE72848BAE728489D
S1131120B8E7012907D0002923D0022905D00329D3
S113113005D00020AEE72348ACE72348AAE72348BC
S1131140A8E7012907D0002915D0022905D00329D1
S113115005D000209EE71E489CE71E489AE71E48DB
S113116098E71E4896E7032094E71D4892E71D4838
S113117090E71D488EE71D488CE7C04600100042EA
S113118000180042001C0042001400420008004203
S1131190000C0042030005000300060003000700E2
S11311A00300010003001E0003001F0003000900E8
S11311B003000A0003000B000300110003001200E7
S11311C00300130003000D0003000E0003000F00D2
S11311D003001700030018000300190003000400B3
S11311E0030008000300100003000C0003001600B5
S11311F030B587B00B4B6A4632CB32C232CB32C2E7
S1131200009B83420BD001239A00694652588242C4
S113121006D00133062BF7D1002007B030BD0023E0
S1131220D8B2FAE73049000070470000F0B50A4B25
S11312301B78002B0CD1094F094E0A4D0024DE51B6
S11312405A1914600433182BF9D10122024B1A7075
S11312508000024BC150F0BD9A0000209C00002089
S113126029120000F400002000B583B009236A4667
S1131270137001335370013393700133D37001330E
S1131280137101335371034B98476B46185603B0DF
S113129000BDC046F111000010B5024B1B680020D0
S11312A0984710BD9C00002010B5024B5B680120DC
S11312B0984710BD9C00002010B5024B9B6802208B
S11312C0984710BD9C00002010B5024BDB6803203A
S11312D0984710BD9C00002010B5024B1B690420E8
S11312E0984710BD9C00002010B5024B5B69052097
S11312F0984710BD9C000020F0B5DE4657464E4688
S11313004546E0B591B005000C00160029600800C0
S1131310BC4B9847020023680520DB0706D511B0B3
S11313203CBC90469946A246AB46F0BD23681730B4
S11313309B07F4D4B449086A971C0123BB400343B8
S11313400B620FA92D27F35D0B701432D3B20293F5
S11313501800AE4B98470298AD4B9847F05D0021BA
S1131360AC4B9847F37A6B712423F35CAB71252360
S1131370F35CEB71F37E2B72337F6B722B689846B0
S11313801800A04B9847143000220E2306A98C465F
S113139063441A80328A02928023DB019A4200D18C
S11313A09EE00FD9C023DB01029A9A4200D192E059
S11313B080231B029A4200D01FE1032306930023DB
S11313C0079308E080239B019A4200D015E1102383
S11313D006930F3B079333680593F368039373698C
S11313E00493337E9B462623F35C9A46736899469E
S11313F0002B00D1A0E080235B05994500D184E057
S1131400737E002B02D0B37E424693732A68029FF8
S1131410D369002BFCD10E3306AA944663441B887F
S113142042469381059B039A1343049A13434A4605
S113143013431F435B461B021F4353465B071F4373
S11314402723F35C002B01D104331F43737E9B02DB
S1131450327F52021343727F120213432422B25C7E
S1131460520413432522B25C12041343B17AF27A74
S1131470114319433389FF2B00D181E080225204A8
S1131480174319432C23F35C002B03D1624B9B7845
S11314909B0701D580231F432A68D369002BFCD105
S11314A0434659602A68D369002BFCD143461F6028
S11314B00EAB80221A7000225A70DA709A70336B65
S11314C00A93736B0B93B36B0C93F36B02930D93AF
S11314D000270AAE63E008230693073B07937AE7E5
S11314E033680593F368039373690493337E9B46CF
S11314F02623F35C9A4673689946002B18D0802300
S11315005B05994501D0002025E02723F35C002BDF
S113151000D075E7336A1F00C0B2404B9847010002
S11315200E2206AB9C46624438003D4B984712E0BD
S113153008230693002307932723F35C002B0ED084
S1131540069B0093079B0E2206A98C466244B16A4F
S1131550306A344FB847002800D0E0E650E7336AD9
S11315601F00C0B22D4B98470100069B0093079BB8
S11315700E2206A88446624438002A4FB847EAE798
S1131580F37E002B00D17DE78023DB041F4379E742
S11315902000254B984707E00137042F0DD0F9B2FE
S11315A0BB0098590028F3D0431CF5D00EA908704D
S11315B0000CC0B21D4B9847EEE70023EB602B6193
S11315C06B61AB61EB612B62AB626B620022EB85FA
S11315D0AB853033EA540133EA540133EA5401331E
S11315E0EA542868074B984704001149114B98475F
S11315F0A400114BE550002091E61023069300232C
S11316000793E8E6F111000000040040891D000082
S1131610FD1C00002D10000000200041A51D00004D
S11316206F0F0000990F000079100000811E000068
S1131630B11700002D120000F4000020C2791C2311
S1131640002A01D118007047C28D92B2173B002ABC
S1131650F8D10368DA69002AFCD1198502211A7EBF
S11316600A42FCD00023EDE7F0B5CE46474680B5EC
S113167083B0050001911720002A04D103B00CBCEB
S113168090469946F0BDEB790530002BF6D02C68D6
S1131690E369002BFCD1013A93B299460026012755
S11316A01F4B984611E0731C9BB2019A915D6A79B5
S11316B0012A17D089B21E0028001A4B98474B46BE
S11316C0013B9BB29946434513D0237E3B42EAD16A
S11316D0134B227E3A42E6D1012B19D0013B002B59
S11316E0F7D1E0E70236B6B2019AD35C1B02194384
S11316F0E2E7237E9B070DD4094B0221227E0A4296
S11317000AD1012B0AD0013B002BF7D10020B5E709
S11317101220B3E70020B1E70020AFE71220ADE7C5
S1131720FFFF00003D160000F8B504000D00160090
S113173007680F4B9847A38D9BB2002B03D00D4B2A
S113174098470520F8BDA6850A4B9847656205228F
S11317503223E2542E3BBB75237A002B01D0202385
S1131760BB75637A0020002BECD00823BB75E9E736
S11317701501000055010000931C9B00C31859601B
S11317803021012393401A00435C134343547047B0
S113179010B51723002A01D1180010BD8479053330
S11317A0002CF9D0014B98470300F5E729170000F6
S11317B0F8B58000624BC5582C68E369002BFCD156
S11317C0237EA67D1E403023EB5C3122AF5C1F409C
S11317D0F30722D5EB8D9BB2002B1CD0AA6A137899
S11317E0DBB2511CA962697901290ED09BB2DB05D9
S11317F0DB0D2385EB8D013B9BB2EB85002B0CD1DC
S1131800013323750133A37507E0517809020B43B3
S11318100232AA62EBE701232375B30706D502233C
S1131820237500223133EA54FB071AD4730765D5B4
S1131830AB8D9BB2002B5FD0638BDBB21A0714D441
S11318403F221340002B34D09A0711D51A22322399
S1131850EA54303B63837B0750D528006B69984773
S11318604CE02800EB689847E0E737221340E9E7AB
S11318705A0705D51E223223EA542E3B6383EAE736
S1131880DA0705D513223223EA54313B6383E2E7B6
S1131890DA0605D542223223EA54223B6383DAE78F
S11318A020221A42D7D021323223EA54123B6383D6
S11318B0D1E7238DDB05DB0DDAB2696A0A706A6A47
S11318C0511C69626979012910D0AB8D013B9BB22F
S11318D0AB85002B12D10433237500222E33EA5436
S11318E0BB070BD528002B69984707E01B0A5370E8
S11318F06B6A01336B62E8E704232375F30604D5AE
S1131900102323752376FB060ED4B30604D52023B7
S1131910237523763B070BD4330704D5082323759B
S11319202376BB0608D4F8BD2800EB699847ECE79A
S11319302800AB699847EFE72B6A28009847F2E73D
S1131940F400002010B5082803D880001B4B1B5856
S11319509F46002030E01A4B18692DE0194B1B6A92
S11319609B059B0F1848D84026E0154B586923E087
S1131970134B1B6800209B071ED512491022CB680D
S11319801A42FCD00E4B1B685B0701D40F4813E0CE
S113199000200F4B98470A4B9B681B041B0C5843B1
S11319A00AE05023074AD35C00205B0704D5044BAC
S11319B0D86801E08020000210BDC04648490000FC
S11319C0B40000200008004000127A00006CDC0221
S11319D0A51D000070B50C490B6A04788578407821
S11319E00122104080014026B34303432A40D20120
S11319F080208343134303222240120203480340FE
S1131A0013430B6270BDC04600080040FFFCFFFF9B
S1131A10082803D88000254B1B589F46172044E014
S1131A20234A136A02210B43136200203DE0204A3B
S1131A30936902210B439361002036E01C4A138A08
S1131A4002210B43138200202FE0194A938A0221BA
S1131A500B439382002028E016490B6802221343AB
S1131A600B60134B9A8419000E32CB681A42FCD0D7
S1131A70104A91680E4BD96252689A6200229A8485
S1131A8019001032CB681A42FCD00A4B1B689BB277
S1131A90074A9384002008E0054944228B5C022015
S1131AA003438B54002000E0002070476C49000081
S1131AB000080040B400002030B585B0C222D20036
S1131AC01A4B9A601A4A53681E218B4353600123B0
S1131AD06A4613700024174DE0B26946A8470134E2
S1131AE0252CF9D103A800244470012585700470C5
S1131AF0114B98470620114B9847114B9847114BAF
S1131B001C725C729C72DC7201956B465C700623DD
S1131B106A46137014725472694600200A4B98473F
S1131B2000200A4B984705B030BDC046000800406D
S1131B3000400041891D0000D5190000111A000061
S1131B40511B000000040040751B00002D1C000008
S1131B50064A936908210B4393610122044B1A70CE
S1131B6019000B781342FCD17047C04600040040B2
S1131B70000C004070B5060004000D782D020543EA
S1131B804B78002B02D08023DB021D434B7A002BC1
S1131B9002D080231B031D434868012810D9431E2B
S1131BA0184234D1022830D90223002201325B00CA
S1131BB09842FBD812023243140080235B031D4376
S1131BC00B7A002B02D080239B031D43134A5378C6
S1131BD05BB2002BFBDB124B9847124B1E700F4A73
S1131BE053785BB2002BFBDB0C4B9C601A005378E0
S1131BF05BB2002BFBDB094A5368802149020B408E
S1131C001D435560084B984770BD0022D2E704027B
S1131C10344380239B021D43D2E7C046000C00409E
S1131C2015010000080C00405501000010B5040027
S1131C300B4A53785BB2002BFBDB0A4B98470A4BE9
S1131C401C70074A53785BB2002BFBDB044A5168D3
S1131C5080235B020B435360044B984710BDC0467E
S1131C60000C004015010000040C00405501000068
S1131C7070B504001A4A53785BB2002BFBDB194B96
S1131C809847194B1C70164A53785BB2002BFBDB48
S1131C90134E7068C004C00E144B98470500124BD5
S1131CA01C707668F602F60F114B1C700C4A5378C0
S1131CB05BB2002BFBDB0A4B9C682402240C0D4B0B
S1131CC09847002E07D1012C07D9210028000A4B80
S1131CD09847050001E00134E540280070BDC04686
S1131CE0000C004015010000040C004045190000E0
S1131CF0080C0040550100004126000010B5040006
S1131D00064B9847064B1C70064A53888021C9012C
S1131D100B435380044B984710BDC0461501000087
S1131D20020C0040000C00405501000010B50400F6
S1131D300F4B98470F4B1C700F4A53881B05180F05
S1131D4053880E490B40538053880D490B405380F0
S1131D5011008022D2014B881342FCD106494A88E3
S1131D6003020648024013434B80064B984710BDBC
S1131D7015010000020C0040000C0040FFF0FFFFC2
S1131D80FFBFFFFF5501000010B50C782402044387
S1131D90024B9847A4B2024B5C8010BD2D1D00007D
S1131DA0000C004010B50400064B9847064B1C700D
S1131DB0064B5C882405240F054B98472000054BEF
S1131DC0984710BD15010000020C0040000C0040B3
S1131DD055010000711C000030B5D378002B35D1BB
S1131DE01378802B29D01B06802464022343547863
S1131DF00225AC4306D19478002C20D18024A4027F
S1131E00234341605478013C012C1CD90D042D0C52
S1131E10A024E4052C431C4384620D0CD024240626
S1131E202C431C438462D478002C22D15B031CD540
S1131E309378012B1ED0416117E00023D7E7C0241B
S1131E40E4022343DDE70D4C2340DFE741600C044B
S1131E50240CA023DB05234383620C0CD0231B0634
S1131E6023438362D378002B03D15378013B012BA6
S1131E7002D930BD8161F8E78160FAE7FFFFFBFF1B
S1131E8010B50A00C1090023002904D14309DB016C
S1131E9005498C4663441F242040012181401800D9
S1131EA0024B984710BDC04600440041D91D0000B4
S1131EB07047000010B5054B9847054B9847054BF4
S1131EC09847054B9847054B984710BDB91A000031
S1131ED085010000B11E0000B11E0000B11E00000B
S1131EE0FEE70000F8B52A4A2A4B9A4211D01A009C
S1131EF0294B9A420DD2294A03339B1A9B0801337A
S1131F009B000022234822498C58845004329A4270
S1131F10FAD1234A234B9A420AD2D34321495B186C
S1131F2003218B4304339B18002102C29342FCD14A
S1131F301D4AFF211D4B8B439360FD3990235B00A9
S1131F401B4AD1501B4AD3780325AB4302242343B5
S1131F50D370D3780C27BB4308263343D370164B76
S1131F60987B30229043202210439873997BB94385
S1131F70314399739A7BAA4322439A730F4A536855
S1131F8080210B4353600E4B98470E4B9847FEE756
S1131F90944C000000000020740000200400002085
S1131FA074000020C801002000ED00E000000000E3
S1131FB000700041005000410048004100400041D1
S1131FC075400000752500000300064A1268002AC7
S1131FD004D0044A1068C318136070470249014AC8
S1131FE01160F6E7CC000020C821002070470000F3
S1131FF010B50A490A230B80094B4B60094B9847DB
S1132000094B1B780133DBB2092B03D90022064BA1
S11320101A7010BD044A1370FBE7C046D4000020B8
S1132020040000200B0C0000DC00002010B50D495A
S11320300A230B800C4B4B6028230268D35C5B089B
S11320400A4A13700A4B98470A4B1B780133DBB2D8
S1132050092B03D90022074B1A7010BD054A1370CF
S1132060FBE7C046D4000020E0000020D20000209E
S1132070E30B0000DC00002000B583B0064B1A68B7
S113208000921B796A461371052269460348044B82
S1132090984703B000BDC046B84900000C010020B9
S11320A069160000F0B587B08022D2002A4B9A61ED
S11320B02A4B1C782A4B1B78002B12D129490C80FF
S11320C00A234B80284B4B602848294B9847244BC4
S11320D01B78012B1CD08022D2001F4B5A6107B001
S11320E0F0BD172200216846224B98472300224A5C
S11320F017216846214DA847172269462048214BDD
S11321009847174B1B78022BD8D11F4B1C78D5E767
S113211003221E491A481B4B9847134B1B78002B6C
S113212013D0002400271A4D00972A000421684682
S1132130124EB047042269461148124B98470134A5
S1132140E4B2094B1B5D002BEED1022211490C486D
S11321500C4B9847BFE7C04680440041D2000020A2
S1132160D300002078010020E0000020500100206E
S113217055060000CF40000090490000E1400000F7
S11321800C0100206916000001000020AC49000089
S1132190B04900001C4B000010B502490248034B33
S11321A0984710BD84010020500100202908000038
S11321B010B50E4B1A880E4908780E49885401321E
S11321C092B21A80092A03D8094B1B780A2B0CD126
S11321D0084C21000848094B98470A220021200096
S11321E0074B98470022014B1A8010BDD0000020F5
S11321F040010020440100200C0100206916000069
S1132200CF40000030B58BB00022002369460A702D
S11322108021890301910121494268460181C281DB
S11322200021017443740592037643768376242255
S113223083540132835401328354FF236A468381D9
S11322400F4B43810F4B07930F4B08930F4D1049CE
S11322502800104B98472C6820000F4B98471F23E9
S113226018401E3B83400D4A136029680322CB6942
S11322701A42FCD123680222134323600BB030BD01
S11322800080FFFF020016000200170090010020EA
S113229000140042390A00006912000000E100E065
S11322A0F8B5144C022214492000144EB0472525D9
S11322B0635D042213436355022723689F75033A21
S11322C00F492000B047635D022213436355013276
S11322D00C492000B047635D08221343635523680B
S11322E09F75002208492000B047635D0122134313
S11322F06355F8BD90010020F11F0000C90B0000D8
S1132300A52000002D2000007920000030B591B0F8
S11323108023DB05009300230193FF2269460A8191
S113232000228B72CB72962189010891012124200D
S11323306C462154013021542531635401316354D6
S11323400A93053163540131635405932382E37680
S11323502276227762761323A3766277C4239B03C3
S1132360039301235B420C930D93104B0E93104B7C
S11323700F93104D104C6A4610492800A0470028BE
S1132380F9D10C4D2C6820000D4B98471F231840A1
S11323901E3B83400B4A13602A68D369002BFCD18F
S11323A0236802221343236011B030BD02000A00E7
S11323B002000B000C010020F9120000000800428A
S11323C06912000000E100E030B58FB001AB642277
S11323D00192224A0292002203921A731A768021F1
S11323E08903059101214942D982998225315A54A0
S11323F00B9208315A5401315A5401315A54D7328C
S11324001A86174A0892174A0992174D174C01AABF
S113241017492800A0470028F9D1134B1C6807224C
S1132420E3691A42FCD123680222134323600E4D50
S11324302868104B98471F2318401E3B83400E4AC0
S11324401360E88800231021628B0A4204D101330F
S11324508342F9D3102363830FB030BD480D0000CD
S1132460020010000200110050010020ED010000E4
S1132470000C00426912000000E100E010B5054CB8
S1132480002205492000054B9847637E012213432F
S1132490637610BD5001002099210000110800004E
S11324A070B5084C002208492000084DA8470122B5
S11324B007492000A8473122A35C03210B43A354FE
S11324C070BDC0460C010020ED1F0000791700000C
S11324D0B121000070B58EB0040002282ED003286C
S11324E021D0012811D069461A4B6A4661CB61C2DA
S11324F061CB61C261CB61C221CB21C21B88138035
S11325002E221548154B984709E03622144968468F
S1132510144B9847362269460F48104B9847124B84
S11325201C700EB070BD3122104968460D4B98479F
S1132530312269460848094B9847F0E733220C4991
S11325406846084B9847332269460348034B98472B
S1132550E5E7C046F04A00000C01002069160000BF
S1132560204B0000BD400000D3000020584B000069
S11325708C4B000070B5CEB01F4B98471F4B98474B
S11325801F4B98471F4B98471F4B98471F4B984723
S11325901F4B984701AB01245C7000229A701C7099
S11325A019002A201B4B98478022D2001A4B5A61EB
S11325B01A4B1C70BFF35F8F62B64F2218493AA8BA
S11325C0184EB047184D4F223AA92800174CA0477F
S11325D0DF22174902A8B047DF2202A92800A0473A
S11325E00120144B9847144E0F4D144C0122310016
S11325F02800A047FAE7C046B51E000005220000E7
S1132600A1220000C92300007D2400000D23000046
S1132610A1240000BD01000080440041000000200E
S1132620C0490000BD4000000C01002069160000F4
S1132630104A0000D524000040010020911700003A
S1132640002243088B4274D303098B425FD3030AED
S11326508B4244D3030B8B4228D3030C8B420DD300
S1132660FF22090212BA030C8B4202D3121209028E
S113267065D0030B8B4219D300E0090AC30B8B42CC
S113268001D3CB03C01A5241830B8B4201D38B037A
S1132690C01A5241430B8B4201D34B03C01A52411F
S11326A0030B8B4201D30B03C01A5241C30A8B4262
S11326B001D3CB02C01A5241830A8B4201D38B024D
S11326C0C01A5241430A8B4201D34B02C01A5241F1
S11326D0030A8B4201D30B02C01A5241CDD2C30963
S11326E08B4201D3CB01C01A524183098B4201D3DF
S11326F08B01C01A524143098B4201D34B01C01ACA
S1132700524103098B4201D30B01C01A5241C30841
S11327108B4201D3CB00C01A524183088B4201D3B0
S11327208B00C01A524143088B4201D34B00C01A9C
S11327305241411A00D20146524110467047FFE708
S113274001B5002000F006F802BDC0460029F7D00C
S113275076E770477047C046F0B5CE464746150445
S11327602D0C2E0080B50704140C3F0C9946030C65
S11327707E435D43674363437F19340CE4199C46ED
S1132780A54203D980235B029846C4444B46514377
S113279043433604360C250C24046544A419591803
S11327A0491920000CBC90469946F0BDF8B5454641
S11327B0DE4657464E460C03E0B54E00C90F884628
S11327C00D00610A440F0C43C70019035800DB0FC6
S11327D09B464B0A510F0B43760D400D1900D20056
S11327E0D84500D1AEE0351A002D00DCF6E0002813
S11327F00FD1134300D1DBE06B1E002B00D037E177
S1132800BA1A9742BF41641A7F42E41B012617009B
S113281024E0C64B9E424DD080231B041943382D1F
S113282000DD07E11F2D00DD38E12020431B9A461F
S11328300B0050468340994613004846EB4018432A
S1132840030050468240501E8241E9401A43BA1A9E
S1132850611A9742A441170064420C1B230262D5FB
S11328606402650A002D00D1DFE0280001F0E4FBDA
S11328700300083B1F2B00DDD2E020223C00D21ACB
S11328809D40D4409F4025439E4200DDC4E09E1BF2
S1132890731C1F2B00DDF1E0202238002900D21A1E
S11328A0D840914097402C000143781E8741DC407A
S11328B000260F437B0709D00F233B40042B05D090
S11328C03B1DBB42BF417F42E4191F0023022CD5AC
S11328D0964B01369E4200D19AE04546944BFF0840
S11328E01C406007760564020743240B760D002123
S11328F02403230B0C0D8F4A24051C431440330579
S113290023435B00ED075B082B43380019003CBCF4
S113291090469946A246AB46F8BD6446044300D1AE
S113292011E2040067467B07C6D145466007FF08ED
S11329300743E4087D4B9E4230D024037605240BE4
S1132940760DD4E7331A9A46002B78DD002831D06F
S113295076488642AED08020000401435346382B8B
S113296000DCE9E00A43511E8A410021D219BA422F
S1132970BF4109197C4217000C192302D3D56B4BB4
S113298001369E4200D13AE10120694B1C407B088C
S113299007401F43E007074364088BE723003B43DA
S11329A000D1CBE18022120314432403240B9EE7BD
S11329B02E007FE70800104300D1B4E0581E002821
S11329C000D0DEE0BA18BA429B4164185B42E418B6
S11329D0170001262302A6D50226D5E7002D6ED1C5
S11329E0701C4005400D012800DCF9E0B81A84464B
S11329F087428041E51A40422D1A280200D489E01A
S1132A00D71BBA4292411C1B5242A51AD84629E749
S1132A104546002400276AE7454CF61A2C4049E74E
S1132A203D002838854000272EE7380001F004FBDC
S1132A3020301DE70A43511E8A41002107E7002B7D
S1132A4000D0F3E0701C43055B0D012B00DCADE00E
S1132A50364B984200D1D1E0BA18BA42BF4164184B
S1132A607F42E419E707520817436408060021E788
S1132A702E48854200D193E01D00D0E629001F3E78
S1132A80F140202B00D18DE04022D31A9D402F43EA
S1132A907D1EAF4100240F43002644E72B000800AD
S1132AA0203BD8400300202D00D17DE04020451B71
S1132AB0A9400A43511E8A4100211A43C7E6002E49
S1132AC050D01A4EB04257D080266B4299463604F5
S1132AD034434B46382B00DDD6E01F2B00DD35E1B7
S1132AE02026F51A2600AE40B2463E00DE40AC4633
S1132AF0350056462E436546AF407D1EAF41DC404F
S1132B003743D71BBA4292410C1B5242A41A060007
S1132B10D846A3E6644667462C4300D0A2E60025C7
S1132B200026002706E71E00C4E6C046FF07000093
S1132B30FFFF7FFFFFFF0F801F2B63DC2020C31AE2
S1132B40080098409C46834653461000D840030032
S1132B505846184363469A40531E9A4153460243CB
S1132B60D94003E726003E4306D0EB439946002BA9
S1132B70C7D0944EB042ACD10C0017000600D84622
S1132B8098E6904B9A450BD08246E7E6002800D0A1
S1132B909EE01800104300D1E9E01C001700D8465D
S1132BA0884E87E6002572E7002182E723003B4335
S1132BB0002E00D0ABE0002B00D1E7E00B00134364
S1132BC000D177E6BA18BA42BF4164187F42E419CB
S1132BD0230200D4F2E07C4B17001C40060069E697
S1132BE020003843002ED1D100285BD11C001443AF
S1132BF000D1A8E01C001700D8465BE606000024BC
S1132C00002797E650460B002038C34099465346A8
S1132C10202B00D195E0402350461B1A99400A43CB
S1132C20511E8A414B4600211A439FE6002E30D1A3
S1132C3026003E4367D0DB439A46002B1CD0614EEE
S1132C40B04260D05346382B00DD96E01F2B00DDE8
S1132C509FE02026F31A26009E409C46B346534626
S1132C603E00DE4033005E461E4363469F407B1EAB
S1132C709F415346DC403743BF1897429241641842
S1132C805242A418060078E627437C1EA74100247C
S1132C9037E74C4EB04236D080265B4236049A4623
S1132CA03443CFE71800104300D103E6B81A844632
S1132CB06745AD41E01A6D42401B050200D42CE685
S1132CC0D71BBA4292411C1B5242A41AD846F1E5C2
S1132CD01800104300D163E7F80867070743802012
S1132CE0E4080003044208D0DD08054205D1D208F7
S1132CF0590711430F002C00D8467B0FE4001C43F6
S1132D00FF00304ED6E50C0017000600D2E5002B7C
S1132D1038D00B00134300D142E7F8086707074394
S1132D208020E40800030442E7D0CB080342E4D146
S1132D30D208490711430F001C00DEE700270024D6
S1132D40D5E500216BE700250027F3E54E46250075
S1132D50203EF5404B462E00202B2DD04025ED1A69
S1132D60AC4027437C1EA74100243743C9E6802496
S1132D7000252403134E0027DCE527437C1EA741CE
S1132D80002479E70C0017000E4E93E50C001700A1
S1132D9090E556462300203EF34099465346202BA7
S1132DA00ED0402356469B1B9C4027437C1EA741C4
S1132DB04B4600241F435FE70024D2E71700B2E527
S1132DC00024F2E7FF070000FFFF7FFFF0B557463E
S1132DD04546DE464E46E0B54C000E0387B08346BA
S1132DE092461D008046360B640DCF0F002C4FD049
S1132DF06F4B9C4235D08023420F1B04F6001343D3
S1132E0033439946C30098466A4B00269C460023E8
S1132E10644403932B031B0B9B466B00ED0F50463E
S1132E205B0D01955ED0624A934253D05A46D1005D
S1132E308022400F120402430A4393465246D100B3
S1132E405C4A9446002263443800684084460290F9
S1132E50E41A16430F2E00D9B4E0574BB6009B5921
S1132E609F460300334399466CD1002398460233AE
S1132E7008260393CEE7CB464146039A0197022ADC
S1132E8065D1019B4A4C9C460023002298466BE086
S1132E900300334399464ED0002E00D1BCE13000EC
S1132EA001F0CAF803000B3B1C2B00DDACE11D2232
S1132EB0D31A5A460100DA4008398E4013003343CE
S1132EC099465B468B40984600233C4C0026241AC6
S1132ED003939FE751465A46114329D10022934652
S1132EE00232B1E7594601431ED05B46002B00D1A4
S1132EF09EE1584601F0A0F803000B3B1C2B00DDBB
S1132F008FE102005946083A91408B461D21CB1AA5
S1132F105146D9400B0059460B4351469B469140BC
S1132F20264B00221B1A8FE7002301229B468BE7C6
S1132F305146032288E700239846013304260024DF
S1132F40039367E70323B14603930C2662E7032A3E
S1132F5000D15CE2019B012A00D0E4E113409C46CD
S1132F60002300240022984600211203130B0A0DAB
S1132F7012051A432305124C40462240134362466D
S1132F805B00D2075B081343190007B03CBC9046B2
S1132F909946A246AB46F0BD002380229C4612030C
S1132FA09846034CE0E70023014C00229846DBE7F7
S1132FB0FF07000001FCFFFFC04B00000DFCFFFFFA
S1132FC0FFFF0F80D94500D939E100D134E1002356
S1132FD046464D469A46013C5B460A0E1B021A437E
S1132FE00B02170C039313041B0C390028009046A2
S1132FF00193FFF725FB0200019B83465A432800F7
S113300039009146FFF7A2FB350C09040D43A9458D
S11330100DD95B464544013BA84500D93AE1A94591
S113302000D837E102235B429C464544E3444B46C7
S1133030EB1A390018000493FFF702FB019B05000B
S11330404343390004989946FFF780FB330409048D
S11330501B0C0B43994509D943446A1E984500D972
S11330601AE1994500D817E1023D43444A469B1AA8
S11330705A4612042A4303999346100C0A0C9146AB
S113308009045A46090C4E460D001204120C45431D
S1133090059151437243704352190E0CB218954274
S11330A003D980256D02AC466044150C0904120452
S11330B0090C28185218834200D2CEE000D1C8E08F
S11330C01D1A53469E1AB24592415242AB1A9A4671
S11330D0984500D117E139001800FFF7B1FA019BB8
S11330E005004343390050460493FFF72FFB04982F
S11330F00B04310C1943884209D941446B1E88459D
S113310000D907E1884200D804E1023D4144049B10
S1133110CB1A180039000493FFF792FA019B8246F8
S11331204343390004980193FFF710FB01980B0403
S11331303104090C194388420DD953464144013BDB
S1133140884500D9E8E0884200D8E5E002235B42E4
S11331509C464144E244019B2D04CE1A5146294326
S1133160059D4F462A000B04080C1B0C5A4345438B
S11331707B4378435B19170CFB189D4203D98025C8
S11331806D02AC4660441D0C12041B04120C28187A
S11331909B18864200D293E000D18EE001231943AC
S11331A0A04BE318002B00DC99E04A0700D09EE016
S11331B05A46D20106D55A469B4B1A408023934661
S11331C0DB00E318994A934268DD0123029A984C84
S11331D01A400023944698460022C5E680224B46B6
S11331E0120313420AD05B46134206D11A43120358
S11331F0120BAC4688468E4CB6E64B461A43120375
S1133200120BBC468A4CAFE603005A46283B9A4050
S113321000239146984657E6584600F00DFF2030AB
S113322040E603005246283B9A400021934677E645
S113323000F002FF20305FE6884500D2C7E64B4627
S1133240DE075D0843465B081E434346DB079A4698
S1133250C2E60025924500D333E7039E5946B4469F
S1133260E244B245AD416D424544EB1801399845FD
S113327007D2984200D97FE000D1BCE01D1A8B46EA
S11332801FE79845FAD1039D5545F2D943468B462D
S11332901D1A16E79B46CAE61500E7E65A46C90812
S11332A052070A435B0590465C0D5A460123029976
S11332B052021940120B8C4656E6002B00D16FE7E0
S11332C046444A1EB04529D91100864200D065E71C
S11332D0039A934200D061E762E701214942012049
S11332E0C21A382A21DD029B03409C4638E60F228D
S11332F00A40042A00D15BE70A00111D9142924161
S11333005242934454E7474BE318002BE5DD012276
S11333105242F2E71D00FAE69A461CE7B04239D859
S11333206ED011003AE702933AE71F2A3CDC2023CF
S11333309B1A0C005846994098404B1E99415B4695
S1133340D440D340204308431A00430709D00F2335
S11333500340042B05D00100081D88429B415B42B9
S1133360D21813023AD50123029A01241A400023E9
S1133370944698460022F7E5022149428C46039D73
S1133380E344AC46E244AA45AD416D424544ED18E0
S11333902D1A96E68A1E03994D008D4289414942B1
S11333A04144761803958FE71F204042C31A5846BC
S11333B0D8400300202A28D040205D46821A954038
S11333C029434A1E91411943072300220B4009D087
S11333D00F2300220B400800042BBDD1010053072A
S11333E05202120BC908194301238846029900248A
S11333F019408C46B8E55245BED88B46002560E698
S1133400039D9D42C6D3110062E70025D8E78022C0
S11334105B4612031A43019B1203120B9C46884617
S1133420034CA1E5FF030000FFFFFFFEFE070000C1
S1133430FF070000F0B557464546DE464E46E0B568
S11334400C0398464E00230B87B0070092469B4618
S1133450760DCD0F002E6BD06D4B9E4235D080245F
S11334605B46420F2404DB0014431C43C30099460B
S1133470684BA3469C4600230027664402934346B8
S11334801C035A00DB0F5046240B520D984600D102
S113349076E05F4B9A426DD08023410F1B040B43AF
S11334A05C49E4008C461C43C3000020624441464E
S11334B0B6186940721C0191944607430F2F00D936
S11334C0B0E0554ABF00D25997465B46034399463C
S11334D000D087E000239B46023308270293CEE7FF
S11334E042460192022867D0032800D10EE2012847
S11334F000D062E100230024002299460199014092
S1133500CDB2002112030B0D120B1B051343434ACA
S1133510240513401C436400ED0764082C4348460B
S1133520210007B03CBC90469946A246AB46F0BD8C
S1133530034399464FD05B46002B00D189E158469E
S113354000F07AFD03000B3B1C2B00DD7AE11D2209
S1133550D31A3A0001005C46DA4008398C40130063
S11335608F4023439B46B94600232D4E0027361A2D
S1133570029384E7534623432AD10024022096E78A
S11335805346234320D0002C00D157E1200000F003
S113359053FD03000B3B1C2B00DD49E11D21CB1A1D
S11335A051460200D9405346083A944093400C4394
S11335B01B4A121A00207AE70125019B144C1D4076
S11335C00023002299469CE70024002201206EE794
S11335D0534603206BE700239B4601330427002650
S11335E002934CE7032381460C27029347E780228A
S11335F00023002512039946054C82E75C464B469E
S113360002986FE75C464B46019502986AE7C0460C
S1133610FF07000001FCFFFF004C0000FFFF0F80CC
S11336200DFCFFFF4A464946170C1A0C1B041B0CE1
S113363008041900000C41431500884619007D4315
S11336407943039589462900150045434D44029565
S113365045462D0CAA46029D5544A94506D98A46DD
S1133660802149028946CA4451460391290C049198
S1133670414609042D04090C88462900250C24041C
S11336804144240C0591210041438846210079439B
S11336908A466843414650448146080C48446F4377
S11336A0824503D98021490289464F44010C894649
S11336B039004944029141460F0404993F0C88465D
S11336C00004C01980444146049159460F0C090472
S11336D0090C884659438A46390051438946414674
S11336E04A435146090C8B467B43D2185A449342B1
S11336F003D980235B029B46D94451460904090C33
S11337008A46414661437C43130C12044B445244A1
S1133710A1468A463C0041466C434D4351464D44C4
S11337200F0C7D19A94503D98021490288464444D8
S1133730049F0399B84641448B46834580414142E6
S11337408846514608042F04000C3F185846029935
S113375010188946904292414F44BA4652429946C3
S11337609346C244D144CB448F42BF41C2458941B0
S113377099459B41934592417F4249422D0C5242C7
S11337800F435B4213437F19FF185B463C19DB0D63
S1133790059A64021C43430213435D1EAB415A461F
S11337A0C00D034352021343E20156D501205A08C7
S11337B003401343E207134364085A486044002853
S11337C04DDD5A0709D00F221A40042A05D01A1DCC
S11337D09A429B415B42E4181300E20104D5802025
S11337E0514AC00014406044504A904200DDE3E670
S11337F00125DB0862071A436402019B9146220BF0
S11338004405640D1D407CE6802259461203114292
S113381008D0144206D122431203120B454699469E
S1133820434C6EE65B461A431203120B404C68E6A7
S113383003005446283B9C400023B9E600F0FCFBFF
S11338402030A6E60300283B9F400023BB46994650
S11338508AE600F0F1FB203074E6B446ADE70125BA
S11338602A1A382A06DD019B00241D400023002269
S1133870994646E61F2A21DC20252000AD1A1E00A9
S1133880AB40A840D6405D1EAB4130431843D44002
S1133890430709D00F230340042B05D00300181D50
S11338A098429B415B42E418230221D50125019BE8
S11338B001241D4000230022994622E61F252100F1
S11338C06D42281AC1400800202A1DD05F35AA1A6B
S11338D0944023435C1EA341072503431D4000225B
S11338E0002D09D00F2200241A401800042AD6D132
S11338F0030065076402220BDB082B43012599466C
S1133900019B00241D40FCE50024E2E78022012500
S11339101203224301991203120B0D409946044CE1
S1133920EFE5C046FF030000FFFFFFFEFE070000B7
S1133930FF070000F0B54646D6464F460C03C0B517
S1133940CD0F4E00610A440F0C43C1005800400DD6
S113395084468A460F001903500F490A0143C6489A
S1133960760DA846DB0FD200844500D1D8E00120B3
S11339704340AB4200D1A6E06046351A002D00DC7E
S113398005E1002810D10B00134300D1D7E06B1ED2
S1133990002B00D04BE153469F1ABA458041641A6C
S11339A04042241A01261EE0B34B9E4248D0802395
S11339B01B041943382D00DD19E11F2D00DD4CE1F6
S11339C020230F005B1B10009A409F40E840531EC9
S11339D09A41E940074317435346DF1B611ABA452E
S11339E0A44164420C1B230200D4C5E06402650AAE
S11339F0002D00D1F6E0280000F01EFB0300083B78
S1133A001F2B00DDE9E020223C00D21A9D40D44067
S1133A109F4025439E4200DDDBE09E1B731C1F2B51
S1133A2000DD0AE120223800D21A290097402C0038
S1133A309140D8407A1E9741DC40002601430F4351
S1133A407B0709D00F233B40042B05D03B1DBB4211
S1133A50BF417F42E4191F00230225D5864B01365E
S1133A609E4200D1AFE0854B01251C4043466207CE
S1133A70FF08640276051743240B760D1D400021D0
S1133A802403230B0C0D7E4A24051C4314403305E8
S1133A9023435B00ED075B082B43380019001CBC73
S1133AA090469946A246F0BD012543466207FF08A9
S1133AB01743E4081D40704B9E4236D0240376051C
S1133AC0240B760DDBE76346F31A002B00DC94E04D
S1133AD06046002835D068488642B1D080273F042C
S1133AE03943382B00DCFDE00A43170000217A1E1D
S1133AF09741574457458041091944420C19230200
S1133B003AD55D4B01369E4200D14BE101225B4B1D
S1133B101C407B0817401F43E207174364088FE7E4
S1133B200800104300D024E721E723003B4300D1E1
S1133B30B9E18022120314432403240B9FE72E00CF
S1133B407EE70800104300D1CAE0581E84460028CE
S1133B5000D0E7E0524452458041641840422418A2
S1133B6017000126230207D50226CFE764462C431B
S1133B7000D1B3E12C0067467B0700D062E76307FE
S1133B80FF081F4301254346E4081D4093E7002D29
S1133B9078D1751C6D056D0D012D00DCF2E05046E9
S1133BA0801A8245BF41651A7F42ED1B8446280274
S1133BB000D48CE05046171ABA4292410C1B55426D
S1133BC0651B984614E70125434600241D40002741
S1133BD055E72A4CF61A2C4032E73D002838854038
S1133BE0002717E7380000F027FA203006E70A43D9
S1133BF0170000217A1E9741EEE6002B00D0E5E085
S1133C00731C9C465B055B0D012B00DC9FE01A4B8B
S1133C109C4500D1C5E0524452458041641840425D
S1133C202418E707520817436408664608E7124851
S1133C30854200D185E01D00BCE629001F3EF1400D
S1133C40202B00D17FE04022D31A9D402F437D1EBC
S1133C50AF4100240F4300268EE72B000F00203BCA
S1133C60DF40202D71D040235D1BA9400A43511E23
S1133C708A4100211743AFE6FF070000FFFF7FFFE3
S1133C80FFFF0F80002E3ED0B34EB44545D08026B2
S1133C9036046D423443382D00DDA8E01F2D00DDCD
S1133CA01FE1202627005046761BB740E840074313
S1133CB05046B040461EB041EC403843171ABA4251
S1133CC092410C1B5242A41A664698468BE66446FF
S1133CD067462C4300D08BE6002500260027EAE641
S1133CE01E00ADE61F2B60DC2027F81A0F00844667
S1133CF087401000D840074360468240501E8241EE
S1133D00D9401743F5E626005046064305D0ED4357
S1133D10002DD3D0904EB445BDD10C00170066469B
S1133D2098468DE68C4883420BD06346D9E6002D35
S1133D3000D096E00800104300D1E2E00C00170028
S1133D409846854E7CE6002580E700218EE7230017
S1133D5050460343002E00D0A8E0002B00D1DEE043
S1133D600B00134300D16BE6524452458041641862
S1133D70404224181700230200D4FDE6774B664620
S1133D801C405DE6250050460543002ECFD1002D92
S1133D904FD10C00144300D1A0E00C00170098464A
S1133DA04EE666460024002785E61F000800203FF3
S1133DB0F8400700202B00D18EE04020C31A994020
S1133DC00A43511E8A410021174392E6002E14D162
S1133DD026005046064362D0DB43002B5CD1871893
S1133DE09742924164185242A418664687E65046A8
S1133DF02043441EA041002460E7574EB4454ED0F2
S1133E00802636045B423443382B00DD7FE01F2BD1
S1133E1000DD8BE0202627005046F61AB740D84034
S1133E2007435046B040461EB0410743DC40BF182C
S1133E30D6E70D00154300D102E65046801A8245AC
S1133E40BF41651A7F42ED1B8446280200D48DE6EB
S1133E505046171ABA4292410C1B5242A41A984671
S1133E60EEE50D00154300D16BE750466707C00827
S1133E7007438020E4080003044207D0CD0805422C
S1133E8004D12C009846D70849070F437B0FE40060
S1133E901C43FF00304ED3E52F4EB445B4D10C0083
S1133EA017006646CCE500270024E8E5002B39D04E
S1133EB00B00134300D144E7C00867070743802081
S1133EC0E40800030442E1D0CB080342DED1D70862
S1133ED049070F431C00D9E7002171E7002500279B
S1133EE0E9E52E002700203EF740202D2FD0402664
S1133EF0751BAC4050462043441EA0410024384367
S1133F00DCE6802400252403134E0027D3E5504625
S1133F1020430700781E87410024BF1860E70C0087
S1133F2017008DE50C0017000B4E89E51E002700D5
S1133F30203EF740202B0CD04026F31A9C405046DC
S1133F402043441EA04107430024BF1848E700242F
S1133F50D0E70024F3E7C046FF070000FFFF7FFF20
S1133F6030B5134D0A034B00120B5B0DC90F00242F
S1133F70AB4210DD0F4CA3420FDC80240E4D6403D2
S1133F802243ED1A1F2D0BDD0C48C31ADA405442AC
S1133F90002900D11400200030BD094BCC18FAE7E9
S1133FA0084CE840A44663449A400243EFE7C04605
S1133FB0FE0300001D04000033040000130400008D
S1133FC0FFFFFF7FEDFBFFFF10B5041E28D000F0BC
S1133FD033F8154B154A1B1AD21A1F2A15DD144A39
S1133FE0D21A9440002224035B05240B5B0D0021AC
S1133FF0100024030A0D240B120522430D4C1B054B
S1134000224013435B00590810BD210091400A006F
S11340100B21081AC4405B052403240B5B0DE6E75F
S1134020002300240022E2E71E0400003304000001
S113403013040000FFFF0F801C2101231B0498427E
S113404001D3000C10391B0A984201D3000A083925
S11340501B09984201D30009043902A2105C4018DC
S11340607047C04604030202010101010000000080
S11340700000000070B500260C4D0D4C641BA4100C
S1134080A64209D1002600F0F5FD0A4D0A4C641B36
S1134090A410A64205D170BDB300EB589847013671
S11340A0EEE7B300EB5898470136F2E7804C000086
S11340B0804C0000804C0000844C0000002310B5AC
S11340C09A4200D110BDCC5CC4540133F8E703001C
S11340D08218934200D1704719700133F9E7000048
S11340E00CB430B5164B9DB00C1E1D6808DA8B233A
S11340F001202B6040421DB030BC08BC02B0184700
S1134100822302A99B008B810023029008619C42B8
S113411000D0631E8B604B6101235B42CB81209AEC
S113412021AB2800019300F06FF8431C01DA8B23C4
S11341302B60002CDFD00023029A1370DBE7C0460B
S113414010000020F0B58E6885B007000C000392C3
S113415001939E4239D890238A89DB001A4234D0D5
S11341600325096923685B1A0293636902985D4316
S1134170EB0F5D19019B6D1001331B18AB4200D985
S11341801D00530532D52900380000F031FB061E0E
S113419009D10C233B6040230120A28940421343F0
S11341A0A38105B0F0BD029A2169FFF787FFA389B7
S11341B0144A1A4080231343A381029B2661F618F4
S11341C026606561019EED1AA560019BB34200D291
S11341D01E0032000399206800F0ADFAA3680020A5
S11341E09B1BA36023689E192660DAE72A00380027
S11341F000F05CFB061EE0D12169380000F0AEFA45
S1134200C7E7C0467FFBFFFFF0B59FB00290059360
S11342108B890F0016001B0611D50B69002B0ED1DC
S1134220402100F0E5FA38603861002805D10C23FC
S1134230029A013813601FB0F0BD40237B61002354
S113424006AD6B6120336B761033AB763400237884
S1134250002B47D1A31B04930DD0A31B32003900BC
S11342600298FFF76FFF431C00D1B5E06A69049B15
S1134270944663446B612378002B00D1ACE00122A7
S1134280002352426A6002A95432521801342B604E
S1134290EB60AB601370AB65584E0522217830009B
S11342A000F03EFA621C002820D12968CB0604D510
S11342B0532302AE20309B1918700B0704D55323E7
S11342C02B2002AE9B19187023782A2B16D00020BD
S11342D00A21099B2278303A092A55D9002815D099
S11342E0099313E0252BB5D00134B0E70123801BDB
S11342F08340296814000B432B60CDE7059B181DF0
S11343001B680590002B39DB0993140023782E2BAE
S11343100BD16378621C2A2B3ED1059B02341A1DF3
S11343201B680592002B34DB0793354E217803225A
S1134330300000F0F5F9002806D04023801B8340AC
S11343402A68013413432B60217806222D48661C09
S1134350297600F0E5F9002846D02B4B002B2FD10D
S11343602968059B0722C90528D59B189343083360
S113437005936B69039A9B186B6167E75B42EB607B
S113438002230B432B60C0E74B4301349B180120ED
S1134390A0E701235B42C7E7002314000A201A00A8
S11343A06B6021783039092903D9002BBDD00792DD
S11343B0BBE74243013452180123F2E70733D5E740
S11343C005AB00933A00114B2900029800E000BFAE
S11343D00390039B0133CCD1BB890B985B0600D4BB
S11343E029E70120404226E705AB00933A00074B3A
S11343F02900029800F07AF8EAE7C046404C000031
S1134400464C00004A4C00000000000045410000FA
S1134410F7B5150001938A680B6900900C0093426C
S113442000DA130022002B6043321278002A01D0F4
S113443001332B6023689B0602D52B6802332B6063
S1134440062723681F4027D0230043331B785A1EB6
S113445093412268920630D4220001994332009895
S1134460089EB047431C25D0062320682A68E168CB
S113447003400025042B03D18D1AEB43DB171D40A9
S1134480A3682269934201DD9B1AED180027BD42FF
S113449020D1002010E00137E3682A689B1A9F426C
S11344A0D2DA22000123193201990098089EB047FC
S11344B0431CF0D101204042FEBD3020E1184331BD
S11344C0087021005A1C45310978A218433202337E
S11344D01170C1E7220001231A3201990098089E45
S11344E0B047431CE6D00137D1E70000F0B58BB0EC
S11344F006920A0043320793059004920A7E0C0048
S1134500109B6E2A00D18FE017D8632A2CD008D8CC
S1134510002A00D199E0582A54D02600423632703D
S113452029E0642A01D0692AF7D121681A680806AB
S113453023D5111D1960156825E0732A00D188E080
S113454008D86F2A29D0702AE7D1202209680A43A3
S1134550226003E0752A20D0782ADED12200782157
S1134560453211706C4A30E00E001A684236111D53
S1134570196013683370012379E04906D9D5111DF8
S113458019600023D55E002D03DA2D23049A6D42B1
S11345901370624B0A2703932FE0206819680506FD
S11345A003D5081D18600D6805E04006F9D50D68AF
S11345B0081D1860ADB2594B082703936F2A18D011
S11345C00A2716E045310A70544A03921A68216892
S11345D0101D18601568080622D5CB0702D52023C4
S11345E0194321601027002D03D1202322689A4308
S11345F022602300002243331A706368A360002BF7
S11346005CDB0422216891432160002D58D1049E73
S1134610002B64D02600039B42361B7833705EE087
S11346204806DAD5ADB2D8E709681A68080605D590
S1134630111D1960136862691A6006E04906F7D50E
S1134640111D19601368A28A1A800023049E236135
S113465054E01A68111D1960166800216268300060
S113466000F05EF8002801D0801B6060636823615D
S11346700023049A137041E02369320006990598D7
S1134680079DA847431C43D0236800259B070FD4EC
S1134690099BE06898423DDA18003BE022000123C0
S11346A0193206990598079EB047431C30D001354E
S11346B0E368099A9B1A9D42F0DBE9E7002DA9D033
S11346C0049E28003900FEF741F8039B013E5B5C21
S11346D0280033703900FDF7B3FF051EF1D1082F10
S11346E009D12368DB0706D563682269934202DC9B
S11346F03023013E3370049B9B1B2361079B09AA53
S113470000932100069B0598FFF782FE431CB3D15A
S1134710012040420BB0F0BD624C0000514C00003F
S1134720C9B28218904201D10020704703788B42AD
S1134730FBD00130F6E710B5884202D98B189842B5
S113474008D300239A4207D0CC5CC4540133F9E760
S11347508B5C8354013AFBD210BD000070B5050098
S1134760002910D00C1F2368002B00DAE41828005D
S113477000F0D4F81D4A1368002B05D1636014605F
S1134780280000F0CCF870BDA34209D92168601854
S11347908342F3D118685B6841182160EEE7130087
S11347A05A68002A01D0A242F9D919685818A042BF
S11347B00BD120680918581819608242E0D110689A
S11347C05268411819605A60DAE7A04202D90C23F2
S11347D02B60D5E721686018824203D110685268C3
S11347E04118216062605C60CAE7C046EC000020AA
S11347F0032370B5CD1C9D43083506000C2D1ED235
S11348000C25A9421DD8300000F088F8254A146808
S11348102100002919D1244C2368002B03D1300036
S113482000F06AF820602900300000F065F8431CAD
S11348302CD10C233000336000F071F803E0002D1C
S1134840DFDA0C233360002070BD0B685B1B1AD4C5
S11348500B2B03D90B60CC18256003E08C420ED1DE
S113486063681360300000F05AF8200007220B3010
S1134870231D9043C31AE7D05A42E250E4E74B6841
S113488063600C00EEE70C004968C2E70323C41C14
S11348909C43A042E0D0211A300000F02DF8431CC4
S11348A0DAD1C6E7EC000020F0000020F8B50700DC
S11348B00D001600002905D11100FFF799FF04002F
S11348C02000F8BD002A03D1FFF748FF3400F7E7C2
S11348D000F026F82C008642F2D931003800FFF7A8
S11348E087FF041EECD029003200FFF7E7FB290004
S11348F03800FFF733FFE3E7002370B5064C0500EB
S113490008002360FDF760FB431C03D12368002BE0
S113491000D02B6070BDC046C401002070477047B2
S11349200B1F1B68181F002B01DA0B58C0187047A7
S113493000080042000C0042001000420014004233
S113494000180042001C00425619000052190000D1
S113495052190000B4190000B41900006A190000CB
S11349605C19000070190000A21900003C1A000034
S11349701C1A00001C1A0000A81A00002E1A0000BD
S11349804A1A0000201A0000581A0000981A000061
S11349907C20486F7374203E2047656E6965203E15
S11349A02030782530325820000000007C200000A0
S11349B02530325820000000746573740000000034
S11349C00A2A2A2A2A2A2A2A2A2A2A2A2A2A2A2A63
S11349D02A2A2A2A2A0A20202053414F2047454EBA
S11349E049452076302E310A20202020206D656430
S11349F069756D726568720A2A2A2A2A2A2A2A2A5D
S1134A002A2A2A2A2A2A2A2A2A2A2A2A0A0A000096
S1134A102F2D2D2D2D2D2D2D2D2D2D2D2D2D2D2DC0
S1134A202D2D2D2D2D2D7C2D2D2D2D2D2D2D2D2D63
S1134A302D2D2D2D2D2D2D2D2D2D2D2D2D2D2D2DA2
S1134A402D2D2D2D2D2D2D2D2D2D2D2D2D2D2D2D92
S1134A502D2D2D2D2D2D2D2D5C0A7C202020202068
S1134A6020446972656374696F6E202020202020C1
S1134A707C202044617461202020202020202020DC
S1134A802020202020202020202020202020202022
S1134A902020202020202020202020202020202012
S1134AA020207C0A7C2D2D2D2D2D2D2D2D2D2D2DD1
S1134AB02D2D2D2D2D2D2D2D2D2D7C2D2D2D2D2DD3
S1134AC02D2D2D2D2D2D2D2D2D2D2D2D2D2D2D2D12
S1134AD02D2D2D2D2D2D2D2D2D2D2D2D2D2D2D2D02
S1134AE02D2D2D2D2D2D2D2D2D2D2D2D7C0A000020
S1134AF07C20202020202020202020202020202056
S1134B002020202020207C205B2A5D206D6F64659E
S1134B102073657420746F3A206F66660A00000083
S1134B207C20202020202020202020202020202025
S1134B302020202020207C205B2A5D206D6F64656E
S1134B402073657420746F3A207061737374687293
S1134B506F7567680A0000007C2020202020202038
S1134B6020202020202020202020202020207C20E5
S1134B705B2A5D206D6F64652073657420746F3AE1
S1134B8020696E6A6563740A000000007C2020209E
S1134B902020202020202020202020202020202011
S1134BA020207C205B2A5D206D6F64652073657412
S1134BB020746F3A2072656469726563740A000038
S1134BC0C42F0000A62F0000602F00007E2E0000DE
S1134BD0602F0000982F0000602F00007E2E000040
S1134BE0A62F0000A62F0000982F00007E2E0000A4
S1134BF0762E0000762E0000762E0000DC310000B8
S1134C0024360000E4340000E4340000E034000002
S1134C10FC350000FC350000EE350000E0340000F7
S1134C20FC350000EE350000FC350000E0340000E7
S1134C300436000004360000043600000838000082
S1134C40232D302B2000686C4C0065666745464771
S1134C5000303132333435363738394142434445F4
S1134C604600303132333435363738396162636463
S1134C7065660000F8B5C046F8BC08BC9E4670479F
S1134C80DD000000F8B5C046F8BC08BC9E4670477D
S1074C90B500000067
S1134C9401080000001102130415060708090000A6
S1134CA414000020000000000000000000000000C8
S1134CB400000000000000000000000000000000EC
S1134CC400000000000000000000000000000000DC
S1134CD400000000000000000000000000000000CC
S1134CE400000000000000000000000000000000BC
S1134CF400000000000000000000000000000000AC
S1074D0400000000A7
S9031EE5F9
